:020000040800F2
:1000000098460020450100084D0100084F010008F6
:1000100051010008530100085501000800000000CC
:100020000000000000000000000000005701000870
:1000300059010008000000005B010008350C0008B1
:100040005F0100085F0100085F0100085F01000810
:100050005F0100085F0100085F0100085F01000800
:100060005F0100085F0100085F0100085F010008F0
:100070005F0100085F0100085F0100085F010008E0
:100080005F0100085F0100085F0100085F010008D0
:100090005F0100085F0100085F0100085F010008C0
:1000A0005F0100085F0100085F0100085F010008B0
:1000B0005F0100085F0100084D0E00085F010008A5
:1000C0005F0100085F0100085F0100085F01000890
:1000D0005F010008A5110008E51100085F01000894
:1000E0005F0100085F0100085F0100085F01000870
:1000F0005F0100085F0100085F0100085F01000860
:100100005F0100085F010008850E00085F0100081C
:100110005F0100085F0100085F0100085F0100083F
:100120005F0100085F0100085F0100085F0100082F
:10013000DFF80CD000F08AF80048004725210008BD
:10014000984600200648804706480047FEE7FEE73D
:10015000FEE7FEE7FEE7FEE7FEE7FEE7FEE7FEE777
:100160005D0C0008310100082DE9FE439946154653
:100170008846074601AC022942D3002D40D000201A
:100180000290A8F101004FF0FF36009022E000FB42
:10019000057201FB057011464A469047002805DCB0
:1001A00054F82600304444F8260013E060682A46DC
:1001B00000FB057154F8040C00FB057007E00B7898
:1001C00090F800C001F801CB00F8013B521E002A54
:1001D000F5D1764254F8040C61688842D7DC4B466E
:1001E0002A463846FFF7C0FF54F8040C4B46A8EBEC
:1001F0000001401C00FB05702A46491EFFF7B4FFB2
:10020000BDE8FE8340EA01039B0703D009E008C96B
:10021000121F08C0042AFAD203E011F8013B00F8CB
:10022000013B521EF9D27047D2B201E000F8012B17
:10023000491EFBD270470022F6E710B513460A4666
:1002400004461946FFF7F0FF204610BD1CB50948CB
:100250000090094801900546009C06E0E06840F0E7
:10026000010394E8070098471034AC42F6D3FFF737
:1002700063FF0000D8320008F832000800880988BF
:10028000401A704770B541F20405CEF200052E68A1
:100290000446012002F012F84DF68361C4F21B31CE
:1002A000A0FB0101880C60432968891B8142FBD3B4
:1002B00070BD00004EF6FC50CEF20000016821F047
:1002C00080710160016841F08071016041F20000BD
:1002D000CEF20000016821F001010160016841F0E7
:1002E00001010160002141607047000080B540F2CB
:1002F000036002F04BF840F60040C4F20100142104
:100300000122C023BDE8804001F0A4BEF0B581B059
:1003100000294FF000063FD00D46044608444FF632
:10032000FF71C0F60701884236D826466FF3DF26F4
:1003300001F04CFE40F20730C6F5006701F054FCB6
:10034000204601F057FDBD4221D910BBED1BEE0A3E
:1003500030063C440FD000BF40F2073001F044FCAF
:10036000204601F047FDA0B9013E04F500643006C7
:10037000A5F50065F0D1680507D040F2073001F01F
:1003800033FC204601F036FD18B9012602E00028B2
:10039000FBD0002601F018FD304601B0F0BD000092
:1003A00040F2EE00C2F20000007870472DE9F04FF5
:1003B00081B042F61C70C0F60000041D40F2F0004F
:1003C000C2F2000000F1080500264FF0010940F2DA
:1003D000E93B4FF0030A00274FF0000817E000F058
:1003E00067F8D5E90023801A9941B0EB0B0071F151
:1003F000000028BF05F808AC0020010644D10137F1
:100400000C3408F10108042F05F110053CD0D4E9A3
:10041000000101F07BFE15F8081C0329ECD8DFE889
:1004200001F0020B131B0028E6D105F8089C00F030
:100430003FF8C5E90001DFE7C0B1002005F8080C6E
:100440000106DCD020E000BF0028C8D005F8086C09
:10045000781C0106D3D017E000281ABF05F8086CF5
:10046000A8F17F0000200106C9D00DE000F020F8BF
:10047000D5E90023801A99410B3871F1000024BF9F
:10048000022005F8080CB7E7C0B201B0BDE8F08F54
:10049000002808BF704710B5044600F011F884ED3D
:1004A000010AFFF77DFF2070BDE810407047000093
:1004B00040F24810C2F20000D0E90001704700008D
:1004C00040F25010C2F2000090ED000A70470000A8
:1004D00080B5FFF76BFF80280ADC012814D00228C2
:1004E00025D003282DD10220BDE8804000F04ABE6F
:1004F000812817D082281FD0832818BF80BD0220F2
:10050000BDE8804000F02EBE002000F03BFE03203E
:1005100000F014FB002814BF0FA00AA0BDE8804023
:1005200002F0E6BB0020BDE8804000F01BBE0120C9
:10053000BDE8804000F026BE0120BDE8804000F00C
:1005400011BE80BD5365744D6F64627573506172E6
:10055000616D206661696C005365744D6F646275EE
:1005600073506172616D2073756365737300000071
:1005700070B584B040F2046001F008FF42F6000458
:10058000C4F20104A4F5C05000210122102300266A
:1005900001F060FD40F2036001F0F8FEA4F5E055C3
:1005A000284610210122012301F054FD2846102184
:1005B0000122022301F04EFD28460121012201F013
:1005C00043FD28460221002201F03EFD40F20A6070
:1005D00001F0DCFE022001F037FE204600F0CAFFE9
:1005E0002046002101F09AF8002001F02DF8204665
:1005F0000221002201F0ACF82046002100F0B0FFFB
:1006000020460121012200F08DFF204600210E220C
:10061000062301F045F8204601214FF4602200F046
:10062000F7FF20460121012200F0D2FF204600F012
:10063000C5FF1420FFF726FE204600F063FF40F2BE
:10064000037001F0A3FEA4F58E34204601F0D0FE25
:100650006D46284601F0AEFF7720009040F2E7306B
:10066000029020462946ADF8046001F02FFF204695
:10067000012101F08BFF32200021002201F084FDD6
:10068000204601F01DFF04B070BD00002DE9F041CF
:100690008AB00DF1040805463C2840464FF024017D
:1006A00028BF3C25FFF7C7FD34206843020A02EB50
:1006B0008200281AC0B218B343F2880302EBC202C8
:1006C000C0F6000303EB820246F26765A8F102015F
:1006D00022321223C6F2666532F8024F013B32F82D
:1006E000246CA4EB060400FB04F454FB05F44FEA6D
:1006F000540707EBD477374421F8027FECD10BE0A5
:1007000043F2880102EBC200C0F6000101EB800158
:1007100001A82422FFF776FD40F2EC00C2F20000AF
:10072000008811220021002357B25EB2BF1B07EBE5
:10073000D77703EB57077EB238F81660864238BF8A
:100740007B1C28BF7A1E5BB252B2864228BF394654
:100750009342E9DD0A0610D049B24A1E38F8123039
:1007600038F81110C01A00EB8000C91A90FBF1F0A4
:1007700002EB820108440A3000E00A2040F2EE0158
:10078000C2F2000108700AB0BDE8F081F0B581B096
:100790004FF20007C0F607076A463846042100F00A
:1007A0009DF9F8B16846FF210022312304786140A9
:1007B000002400BF4EB20D464900002E48BF83EA18
:1007C0004501072C04F10104F4D30132032A00F19E
:1007D0000100EBD19DF80300C9B2884202D101208B
:1007E00058BB3BE007F500606A46042100F076F94B
:1007F00008B36846FF210022312300BF0778002597
:10080000794000BF4EB20F464900002E48BF83EA30
:100810004701072D05F10105F4D30132032A00F148
:100820000100EBD19DF80300C9B2401AB0FA80F084
:10083000400910B912E0002080B1BDF8000045F673
:100840005A2188420AD1009840F24011C2F20001B8
:100850000860887801F0BAF901B0F0BD40F24010AC
:1008600045F65A21C2F20000C0F20101016001B058
:10087000F0BD000070B542F61C756FF00B04C0F6B9
:10088000000500BF2E19B08901F080FDD6E90403F0
:100890000421022201F0DEFB0C34242CF2D170BDC5
:1008A000F0B581B042F64C776FF00B06C0F600074A
:1008B000BC19A08901F06AFDD4E904451021204645
:1008C00002222B4601F0C6FB2046294601F0B8FB68
:1008D0000C36182EECD101B0F0BD000080B584B00C
:1008E0000648009005A0C268D0E901100392CDE946
:1008F0000110684600F04AF804B080BD0100000015
:1009000080250000C51200081D0A000801F018B873
:10091000B0B50446082002F0B5F90546FFF7B8FD6A
:10092000287800EB8000410028462180BDE8B040D7
:1009300002F06CB910B582B004466846FFF7A8FD16
:100940009DED010AB2EE041A20EE010ABDEEC00AC6
:1009500010EE100A208002B010BD000010B100207F
:1009600000F010BC002000F0FDBB000010B1012021
:1009700000F008BC012000F0F5BB000010B102201F
:1009800000F000BC022000F0EDBB000010B582B00A
:100990000178436804464FF0000C00200022CDF897
:1009A00000C000F087FF00F001FFD4E9020140F22F
:1009B0003012C2F20002C2E9000102B010BD000014
:1009C000B0B540F2066001F0E1FC40F60044C4F22C
:1009D000010404F54065284610210122042301F09A
:1009E00039FB40F2036001F0D1FC204610210122C6
:1009F0004FF4204301F02EFB2046482101224FF402
:100A0000804301F027FB2846042101F01BFB204610
:100A10004FF40051BDE8B04001F012BB2DE9F04F9A
:100A200083B00028029151D0002A4FF0000B4FD024
:100A300005460024019200BF029843F2380604EBF9
:100A40000009600005EB440700F101084FF0000ABF
:100A5000C0F60006002000210CE000BFBAF1030F31
:100A60000AF1010A4FF0000088BF01201036BAF1E8
:100A7000050F15D072889145F0D13178C90711D092
:100A8000BAF1010F3146E9D8B1683846884739785C
:100A900015F8080005F8081031463870DEE700BF89
:100AA0000E4601E04FF0020B00F00100002E594607
:100AB00008BF012100281CBF8B46002E08D0019AD8
:100AC00001349442B8D14FF0000B01E04FF0020B1B
:100AD0005FFA8BF003B0BDE8F08F00004FF6FF73B4
:100AE00001EB000CC0F607039C4507D831B1013A71
:100AF00010F8013B013902F8013FF9D10021C0F69D
:100B0000080100208C4538BF0120704700F008B86C
:100B100080B500F033FABDE88040FFF729BD000042
:100B200080B500F083FAFFF7CBFCBDEEC00A10EEF3
:100B3000100ABDE88040FFF7A9BD00002DE9F04391
:100B400081B040F24016C2F20006B178814203D172
:100B5000012001B0BDE8F083316800918DF80200FA
:100B600001F034F8002860D16846FF2100223123CB
:100B700007780025794000BF4CB20F464900002C91
:100B800048BF83EA4701072D05F10105F4D301327F
:100B9000032A00F10100EBD14FF20008C0F607086C
:100BA0008DF8031040460421FFF7B0FB48B16A46B8
:100BB0004046042100F0FCFB8146B9F1000F05D14D
:100BC00030E04FF00009B9F1000F2BD06846FF214B
:100BD0000022312304786140002400BF4DB20F464B
:100BE0004900002D48BF83EA4701072C04F10104A6
:100BF000F4D30132032A00F10100EBD108F50064BF
:100C00008DF8031020460421FFF780FB20B16A46CF
:100C10002046042100F0CCFBB9F1000F02D000986F
:100C2000306095E7B07800F0D1FF002001B0BDE85A
:100C3000F083000040F24810C2F20000D0E9001238
:100C4000013142F10002C0E9001240F23C10C2F250
:100C500000000068002808BF7047004781B04EF6CA
:100C60008851CEF200010A6841F2040C42F470028D
:100C7000C4F2020C0A605CF8041C41F001014CF85B
:100C8000041C00BF5CF8041C8907FBD5DCF80010CD
:100C900041F08001CCF8001000210091009A4F2A09
:100CA00006D800BF009A01320092009A502AF9D368
:100CB000DCF8002042F09002CCF80020009100996E
:100CC0004F2905D800990131009100995029F9D395
:100CD000DCF800104FF6FF7221F00301CCF8001091
:100CE0005CF8041CCFF6F66211404CF8041C4FF47B
:100CF0001F01CCF804105CF8041C21F480214CF88E
:100D0000041C0021CCF80010CCF828105CF8042C4E
:100D100042F480324CF8042C4FF6FE725CF8040C5E
:100D2000013A41F10003800301D4002BF6D15CF8B5
:100D3000040C800301D400BFFEE7DCF8180047F282
:100D4000000140F08050C4F20001CCF8180008689F
:100D50004FF6FF7240F440400860DCF80000CBF230
:100D6000C372CCF80000DCF80000CCF80000DCF81E
:100D7000000040F48060CCF80000DCF8000020F4B3
:100D80004030CCF80000DCF8000040F44030CCF8F3
:100D90000000DCF800001040CCF80000DCF8000097
:100DA00040F0006040F45010CCF800005CF8040CF7
:100DB00040F080704CF8040C5CF8040C8001FBD50A
:100DC000086840F4803008604868C003FCD50868B3
:100DD00040F40030086000BF48688003FCD5DCF8B0
:100DE000000020F00300CCF80000DCF8000040F028
:100DF0000200CCF8000000BFDCF800000007FBD5C3
:100E000001B0704780B5012001F058FA44F6D35183
:100E1000C1F26201A0FB01014FF0FF3000EB911025
:100E2000B0F1807F10D24EF21001CEF20001486086
:100E30004EF62350CEF20000F022027000208860AF
:100E40000720086080BD00BFFEE7000010B540F637
:100E50000004C4F200042046012101F09FFB002899
:100E600008BF10BD2046012101F094FB204600215F
:100E700001F0BCFA40F28810C2F200000068BDE840
:100E800010400047B0B540F60044C4F20104A4F598
:100E900080352846012101F081FB00284BD02846EF
:100EA000012101F077FB40F2DA05C2F20005288843
:100EB0000130C107288015D12046012101F02CF90D
:100EC000B0FA80F042092046012101F0BDF8204629
:100ED000022101F021F9B0FA80F0420920460221F6
:100EE00001F0B2F8288845F629410138CCF28F216B
:100EF00048434DF20A714FEA3010C0F2A301884214
:100F000088BFB0BD04F5E0542046012100F012FC7A
:100F10002046022100F092FB0028F9D0204600F084
:100F2000F9FB05462046022100F084FB40F2EC006C
:100F3000C2F200000580B0BD80B540F2300E002046
:100F4000C2F2000E4FF0010C04E000BF0C30242868
:100F500008BF80BD0EEB00035A88002AF6D0013A84
:100F600011045A80F2D199880EF800C05980EDE73B
:100F700040F23C11C2F200010860704710B540F227
:100F8000046001F003FA42F20044C4F20104A4F543
:100F9000A05000210122082301F05CF840F2096012
:100FA00001F0F4F9022001F04FF9204600F0E2FAD6
:100FB0002046002100F0B2FB002000F045FB204657
:100FC0000221012200F0C4FB2046002100F0C8FAF3
:100FD00020460121012200F0A5FA204600210D2221
:100FE000072300F05DFB204601214FF4602200F052
:100FF0000FFB20460121012200F0EAFA20460021E1
:1010000080220C2300F02CFB204600F041FB204600
:1010100000F0D4FA1420FFF735F9204600F072FAF8
:1010200020460121BDE8104000F084BBB0B542F27B
:101030000045C4F2010500BF2846022100F0FEFA77
:101040000028F9D0284600F065FB04462846022116
:1010500000F0F0FA42F6707C63220021C0F6000C2A
:10106000002300BF55B258B2281A00EBD07003EB32
:10107000500045B23CF81550A54288BF431C98BFAC
:10108000421E5BB252B2A54298BF01469342E9DDCF
:10109000080612D048B2411E3CF811203CF810005E
:1010A000131B03EB83035B00101A93FBF0F001EBBF
:1010B000810100EB410001B200E0002140F2D802C2
:1010C000C2F20002137840F25410C2F2000040F85D
:1010D0002310591CCBB2CD256B43DB0A03EB8303F2
:1010E000A1EB430340F2DC01C2F200010D78137062
:1010F0006B1CDAB2022A0B7001D8006823E00B2ABD
:1011000024BF0A2008700D7840F25414C2F2000483
:1011100040F27D23C0F60003204629460422FFF753
:1011200023F8A81E01060AD0221FC3B2002100BF67
:101130009568013B294402F10402F9D100E0002145
:10114000C0B291FBF0F000EE100AB8EEC00AB2EEA9
:10115000041A80EE010A40F25010C2F2000080ED45
:10116000000AB0BD032888BF704742F64C7100EBFF
:101170004000C0F6000101EB8000D0E9010100F061
:101180005FBF0000032888BF704742F64C7100EB38
:101190004000C0F6000101EB8000D0E9010100F041
:1011A00051BF0000B0B540F21405C2F2000540F294
:1011B00005342868C0F20504214601F0DFFA002852
:1011C00008BFB0BD2868214601F0CEFA286801F0BA
:1011D0005FFA40F23811C2F200010968C0B2BDE8FE
:1011E000B040084770B540F2053544F20044C0F203
:1011F0000505C4F2000405F101162046314601F050
:10120000BDFA48B12046314601F0AEFA40F28410F2
:10121000C2F20000006880472046294601F0AEFA7D
:10122000002808BF70BD2046294601F09DFA40F213
:101230008010C2F200000068BDE870400047000066
:1012400010B540F21404C2F20004A08901F09EF827
:10125000A06823691821012200F0FCFEA0686369E0
:101260004821012200F0F6FEA08801F08FF82068E6
:1012700001F016FA2068002101F0B6FA206800217A
:1012800001F08EFA2068002101F09CFA20684FF4EA
:10129000E13101F0BBF92068082101F09BFA2068D8
:1012A000042101F085FA206840F2053101F050FA7E
:1012B000207E0021002200F067FF2068BDE810407A
:1012C00001F02CBA2DE9F04F85B00028029169D0C9
:1012D000002A4FF0000166D043F238030546C0F6FD
:1012E00000030026019200BF02987200371803968F
:1012F00002F101084FF000094FF0000B4FF0000A17
:101300000E46002004E000BF0226002008BB35E0A6
:1013100003EB090461888F421CD12078800729D50E
:10132000A85C15F8081041EA0020A18880B2884224
:10133000EAD3E1888842E7D8BBF1020F07D3E1681E
:1013400004928847049A43F23803C0F60003012050
:10135000A0B12046BBF1030F4FF0000A09F11009BC
:101360000BF1010B88BF4FF0010AB9F1500FCFD13B
:1013700006E000BF0226204602E000BF03EB0B1090
:101380000AF001070028314608BF0121002F0CBFD9
:101390003146002807D0039E019A01369642A3D118
:1013A000002100E00221C8B205B0BDE8F08F0000C6
:1013B0002DE9F04152B30546C0074FF0000742D176
:1013C000884600293FD04FF6FF7108EB0500C0F6B4
:1013D0000701884237D8144600F0F8FD5FEA580745
:1013E00010D0002640F2073000F0FEFB218828468E
:1013F00000F00AFC78B90136B0B20235874204F138
:101400000204EFD80220052808D117E0002707F0D2
:101410000100BDE8F081052005280FD0022812D177
:101420005FEAC8700CD040F2073000F0DDFB208886
:1014300040F47F41284600F0E7FB08B1002700E0B8
:10144000012700F0C1FC07F00100BDE8F0810000B9
:1014500084B040F20005C2F2000514460E4607466D
:101460001DA0162101222B4601F0F8FB3846294623
:1014700001F0BFFB1EA0072101222B4601F0EEFB6D
:101480003046294601F0B5FB1BA0072101222B465F
:1014900001F0E4FB01A80A300A21012CADF80E107E
:1014A00012DB4CF6CD41CCF6CC4100BFA4FB0123AE
:1014B000DA0802EB8203A4EB430343F0300300F8A5
:1014C000013D092C1446F1D840F20001C2F200019E
:1014D00001F08FFB00F014F82A2A2A20617373654B
:1014E0007274696F6E206661696C65643A200000F1
:1014F0002C2066696C6520002C206C696E652000CC
:10150000FEE70000816841F00801816081680907F9
:10151000FCD4816841F00401816000BF8168490703
:10152000FCD4704780B5012908D0022918BF80BDBE
:101530004FF4401E6FF4401C382304E04FF4700E4B
:101540006FF4700C2C23195801EA0C0119500EEBA2
:1015500002511A5801EA0E011143195080BD0000D2
:101560008268002922F4006218BF02F500628260DE
:101570007047000010B542F20041C4F201018842F8
:101580000FD043F60041C4F2010188420CD042F66C
:101590000001C4F20101884218BF10BD40F20A34B4
:1015A00004E040F2093401E040F20F34204600F03C
:1015B0000DFF2046BDE8104000F0F8BE8168C90765
:1015C00018BF7047816841F00101816070470000D9
:1015D00022B1CA0710D1890714D47047CA0703D0B3
:1015E000826822F480128260890758BF7047816840
:1015F00021F4004181607047826842F48012826069
:101600008907EAD5816841F4004181607047000094
:10161000012905D0022918BF70476FF4E04101E0AD
:101620006FF4602183681940816081681143816093
:1016300070470000C943016070470000006808401F
:1016400018BF01207047000042F20441C4F20101BA
:101650000A6822F470220A600A6810430860704722
:10166000D0F880C0B1F5007F2CF4007C08BF0CF5E9
:10167000007CC0F880C0D0F880101A4321F4FE71BD
:10168000C0F88010D0F880101143C0F88010704767
:10169000D0F8801041F00101C0F8801070470000C0
:1016A00010B5052904D800F1340C01EB810E10E0CF
:1016B0000B2906D801EB810100F1300CA1F11E0EBF
:1016C00007E00F2910D801EB810100F12C0CA1F1EA
:1016D0003C0EDCF800101F2404FA0EF4A14302FAB9
:1016E0000EF42143CCF80010092A03D8103002EB85
:1016F000420106E0112A88BF10BD02EB42010C3006
:101700001E39026807248C40A24303FA01F11143F9
:10171000016010BDC06C80B270470000D0F880201E
:1017200022F44052C0F88020D0F880201143C0F845
:1017300080107047CA0703D0826842F4800282603A
:10174000890758BF7047816841F400118160704774
:1017500032B1CA0518D44A051CD4890720D4704771
:10176000CA0503D5426822F4807242604A0503D557
:10177000426822F480624260890758BF70478168DE
:1017800021F0020181607047426842F48072426039
:101790004A05E2D5426842F4806242608907DED59C
:1017A000816841F0020181607047000010B540F28D
:1017B0001004C2F20004207801281CBF062010BDCE
:1017C00000F0EAF90020207010BD000070B50C4652
:1017D000098805291CBF032070BDB0F803100ABAA0
:1017E0004FF0FF3101EB124189B27C294FF0030128
:1017F0001DD80025B0F80130258000F8021B218893
:10180000120C01315600218000F8016C25881BBAAA
:10181000190C6B1C2380002300F0CCF918B1BDE833
:10182000704000F003BD208800213044208008462D
:1018300070BD0000098805291CBF0320704780B5D2
:10184000B0F80110033009BA090C0122012300F09D
:10185000B1F90028BDE8804004BF0020704700F0C7
:10186000E5BC000010B50C46098806291BD3C278D8
:10187000017941EA0222531E9BB2772B13D8437998
:1018800001F07F01B3EB410F0DD1B0F8011006302C
:1018900009BA090C92B2012300F08CF928B1BDE815
:1018A000104000F0C3BC032010BD052020800020A4
:1018B00010BD000010B501F10804E4B2092C3CBFD2
:1018C000022010BD40F28C14C2F20004217018B145
:1018D00002243CB3204610BD40F2801042F625247D
:1018E000C2F20000C0F60004046040F2841042F628
:1018F0003534C2F20000C0F60004DDF808C0046010
:1019000040F2881042F6DD24C2F20000C0F6000466
:101910000460084611461A46634600F097F80446EC
:10192000002CD7D100F0D8FF38B140F21000C2F23D
:10193000000001210170204610BD032010BD0000F1
:1019400040F21000C2F20000007800281CBF062000
:101950007047F0B581B00DF1030000F0A9FF012838
:1019600071D19DF8030002281FD001286BD140F2ED
:10197000E404C2F2000440F2E00140F2E602C2F2E6
:101980000001C2F20002204600F080F800285AD17F
:10199000207830B140F28C11C2F2000109788842FF
:1019A00051D1022000F0A0FF4DE040F2E004C2F26D
:1019B0000004206840F2DD06017840F2DE07C2F242
:1019C0000006012240F25403C2F2000732700022E6
:1019D000C2F20003397000BF13F8325075B18D4266
:1019E00003D00132102AF7D108E003EBC2014A68A4
:1019F00040F2E601C2F200019047307040F2E4008C
:101A0000C2F200000078F0B1307878B1397840F255
:101A1000E6022368C2F2000241F08001012717802C
:101A20001970118823684F1C1780585440F28C108D
:101A300040F2E602C2F20000C2F200020078216821
:101A4000128800F067F8002001B0F0BD10B5144610
:101A500008461146082200F061FF012804D1B4F5C0
:101A6000964F04D9232009E00320C0B210BD47F6E9
:101A7000A0716000C0F21701B1FBF0F080B200F07D
:101A8000A7FF013818BF0320C0B210BD2DE9F041F7
:101A900040F28E24C2F2000490462288B2F5807F84
:101AA0001BD206462088042809D340F28D170D4624
:101AB0002188C2F20007384600F084FD10B10520ED
:101AC000BDE8F08117F8010B307020882F600338D3
:101AD000A8F800000020BDE8F08143F2B92103A07E
:101AE000C0F600019B22FFF7B3FC00BF7573526381
:101AF00076427566666572506F73203C204D425F7A
:101B00005345525F5044555F53495A455F4D4158C4
:101B10000000000070B540F2E903C2F200031B7838
:101B2000012B1CBF052070BD40F27C1540F29024B3
:101B30004B1EC2F20005C2F2000401262B60268073
:101B400001F8010C2088104420802188184600F0FC
:101B500039FD21884A1C228040F28D12C2F2000217
:101B600050542188000A4B1C2380505440F2EA0054
:101B7000C2F2000006702868007800F01FFF286895
:101B800001210130286020880138208000200024B5
:101B900000F032FE204670BD80B540F2E900C2F28E
:101BA000000000210170012000F026FEBDE8804009
:101BB00000F068BE40F2301CC2F2000C012B18BFCE
:101BC0000CF1040CDCF800301847000000F10801AB
:101BD000C9B2092931BF022040F28C11C2F20001C2
:101BE000087028BF0020704742F2000300F01F0178
:101BF0008009C4F202034FF0010CC2580CFA01F143
:101C00001143C1507047000010B54FF2E072C1F6A9
:101C1000FF7212888446B2F5007F68D901224FF620
:101C2000FF70CFF20102C0F6070042F20C038445B8
:101C3000C4F202034FF0020E14461BD21868C0070C
:101C40000AD11868C0065ABF18680EEA500003206F
:101C5000012804D007E000BF0120012803D1002C97
:101C600004F10104EAD1012808BF0420002800F093
:101C7000898010BD186CC0070AD1186CC0065ABF05
:101C8000186C0EEA50000320012804D007E000BFC2
:101C90000120012803D1002C04F10104EAD101281C
:101CA00008BF04200028E4D1586C40F001005864BB
:101CB000ACF80010022100BF186CC0070AD1186CE4
:101CC000C0065ABF186C01EA50000320012804D056
:101CD00007E000BF0120012803D1002A02F1010220
:101CE000EAD1012808BF042003F1440145E00123A3
:101CF000CFF2010342F20C02C4F202024FF0020ED4
:101D00001C4600BF1068C0070AD11068C0065ABF41
:101D100010680EEA50000320012804D007E000BF3D
:101D20000120012803D1002C04F10104EAD101288B
:101D300008BF0420002818BF10BD506840F0010003
:101D40005060ACF8001002211068C0070AD110687A
:101D5000C0065ABF106801EA50000320012804D0D1
:101D600007E000BF0120012803D1002B03F101038C
:101D7000EAD1111D012808BF04200A6822F00102DF
:101D80000A6010BD586840F001005860ACF80010BF
:101D9000022100BF1868C0070AD11868C0065ABFE0
:101DA000186801EA50000320012804D007E000BFB2
:101DB0000120012803D1002A02F10102EAD1012801
:101DC00008BF0420191DD8E742F21000C4F2020037
:101DD000016841F0800101604FF2E071C1F6FF71CE
:101DE0000988B1F5007F98BF7047016C41F0800110
:101DF0000164704780B54FF2E071C1F6FF71098848
:101E00008446B1F5007F70D94FF6FF700121C0F60E
:101E10000700CFF2010142F20C02C4F202024FF0BD
:101E2000020E0B4684451BD21068C0070AD1106809
:101E3000C0065ABF10680EEA50000320012804D0E3
:101E400007E000BF0120012803D1002B03F10103AB
:101E5000EAD1012808BF0420002800F0958080BD49
:101E6000106CC0070AD1106CC0065ABF106C0EEA85
:101E700050000320012804D007E000BF0120012802
:101E800003D1002B03F10103EAD1012808BF04208C
:101E90000028E4D1506C022340F002005064C2F8E4
:101EA00048C01069800748BFC2F808C0506C40F0B5
:101EB00040005064106CC0070AD1106CC0065ABFB5
:101EC000106C03EA50000320012804D007E000BF93
:101ED0000120012803D1002901F10101EAD10128E3
:101EE00008BF042002F1440149E00121CFF20101C1
:101EF00042F20C02C4F202024FF0020E0B4600BF87
:101F00001068C0070AD11068C0065ABF10680EEAF0
:101F100050000320012804D007E000BF0120012861
:101F200003D1002B03F10103EAD1012808BF0420EB
:101F3000002818BF80BD5068022340F002005060A6
:101F4000C2F808C0506840F0400050601068C007F8
:101F50000AD11068C0065ABF106803EA5000032077
:101F6000012804D007E000BF0120012803D1002987
:101F700001F10101EAD1111D012808BF04200A68FE
:101F800022F002020A6080BD5068022340F0020085
:101F90005060C2F808C0506840F04000506000BF78
:101FA0001068C0070AD11068C0065ABF106803EA5B
:101FB00050000320012804D0DDE700BF01200128E4
:101FC000D9D1002901F10101EAD1D4E742F204009C
:101FD000C4F20200C168090609D540F22311C4F217
:101FE0006751016048F6AB11CCF6EF5101604FF23A
:101FF000E071C1F6FF710988B1F5007F0DD9C16CA0
:10200000090658BF704740F22311C4F267510164BA
:1020100048F6AB11CCF6EF5101647047B0B540F211
:102020001405C2F2000504462868E1B200F034FB52
:102030002868072100F078FB0028F9D02046B0BDC1
:1020400041617047016170471023002A08BF1423C3
:10205000195070472DE9F047CF0601F00F0C09D554
:10206000042A05D1C26B4CF0030C1A43C26301E091
:102070004CEA020C00F1100E00F1140A00244FF09B
:1020800001094FF00F0800270EE000BF166008FAA4
:1020900004F225EA02020CFA04F52A430260013731
:1020A000082F04F104040CD009FA07F212EA03061F
:1020B000F5D0056828295246E8D04829E7D172466C
:1020C000E4E7082400254FF001094FF00F080FE066
:1020D000176008FA05F226EA02020CFA05F6324306
:1020E00042600134102C05F1040508BFBDE8F087FB
:1020F00009FA04F212EA0307F3D046682829524687
:10210000E6D04829E5D17246E2E700008068084041
:1021100018BF012070470000C068084018BF0120A8
:1021200070470000FEF7C6F8FEF76CFEFFF788F870
:10213000FEF7EEFCFEF7B4FBFEF79CFBFEF7D6F8CD
:10214000FEF73EFCFEF7CAFB40F63970C0F6000011
:10215000FEF70EFFFEF71AFB40F230050024C2F234
:102160000005002604E000BF701CC61E18BF06460E
:1021700006EB460015F820100029F5D005EB80008D
:10218000816804708847EFE74EF60C5CCEF2000CD5
:10219000DCF8003003F4E063B3F5E06F01D1042311
:1021A00028E0DCF8003003F4E063B3F5C06F01D140
:1021B00003231FE0DCF8003003F4E063B3F5A06F05
:1021C00017D0DCF8003003F4E063B3F5806F01D181
:1021D00001230FE0DCF8003003F4E063B3F5407F47
:1021E00001D1002306E040F20053C0F2FA53CCF8CC
:1021F0000030022301FA03FCC3F104030F21D9408C
:1022000011404EF2001241EA0C01CEF20002090127
:1022100040EA020383F8001300F01F01012303FAD0
:1022200001F11C2303EAD00081507047002808BF49
:102230007047072804BF06207047012804BF02200A
:10224000704704207047000010B541F2040CC4F23E
:10225000020CDCF8001043F6FF72CEF6FF720A4063
:10226000DCF828100B2821F0005E21D801238340E0
:102270001C070CD113F4706F0CD04CF20003CFF696
:10228000FC7303EA8030024341F0005E10E042EA52
:1022900080320DE00121814011F0A00F08D04CF2F6
:1022A0000001CEF6FE7101EA8030104340F080520A
:1022B000CCF80020CCF828E010BD000010B541F2A9
:1022C0000404C4F20204216801F00C01082941F25F
:1022D0000021C0F27A012BD12368DB0304D440F63D
:1022E000001CC0F23D0C0DE0A36AD4F800C05B00F6
:1022F00046F60043C0F2DC2358BF0B46CCF3404106
:1023000023FA01FC23682168C3F3834E102303EAF8
:10231000D15123688E44202101EA536171440B4658
:102320003F2918BF01330F2938BF8B1C03FB0CF169
:10233000236812A2C3F30313D35C226842F6147C11
:10234000C2F30222C0F6000C1CF802E02268032847
:1023500007D821FA03F3DFE800F00F020609184658
:1023600010BD002010BD23FA0EF010BDC2F3C22034
:102370001CF8000023FA00F1084610BD0000000020
:1023800000000000010203040607080941F20003EF
:1023900000F01F018009C4F202034FF0010CC25883
:1023A0000CFA01F11143C1507047000041F20003E3
:1023B00000F01F018009C4F202034FF0010CC25863
:1023C0000CFA01F122EA0101C150704741F2000309
:1023D00000F01F018009C4F202034FF0010CC25843
:1023E0000CFA01F11143C15070470000416270477F
:1023F00010B540F6FF71C4F20001884211DC40F2D2
:10240000FF71C4F20001884221DCB0F1804F3CD062
:1024100040F20041C4F20001884249D140F2014437
:102420003EE042F6FF31C4F2010188421EDC41F277
:102430000001C4F2000188422AD041F20041C4F2F6
:102440000001884218BF10BD40F2054428E040F664
:102450000001C4F2000188421DD040F60041C4F2E0
:102460000001884224D140F2034419E042F60041C1
:10247000C4F20101884211D043F20041C4F20101CB
:10248000884215D140F20D340AE04FF4806407E031
:1024900040F2044404E040F2024401E040F20B3414
:1024A0002046FFF793FF2046BDE81040FFF77EBFB0
:1024B00010BD0000016821F00101016070470000BB
:1024C000016841F001010160704700000A8843F291
:1024D000004C826240F6FF32C4F200029042C4F225
:1024E000010C0FDCB0F1804F1AD040F20043C4F26F
:1024F0000003984214D040F60003C4F2000398424F
:102500000ED019E040F60043C4F20003984207D011
:10251000604505D042F60043C4F2010398420BD156
:10252000036823F0700303604B8802681A4302605B
:102530008A8803681A43026080B541F20002D1F82C
:1025400008E020F48063C4F200029342C0F82CE05B
:1025500007D0026822F440720260CA8803681A43F6
:102560000260604505D042F60042C4F2010290428A
:1025700001D1097B0163416941F00101416180BDE5
:10258000C26822EA0101C16070470000C2681143BD
:10259000C1607047C943016170470000C2680069AB
:1025A0000A40084018BF0120002A18BF012210402D
:1025B0007047000000214FF6FF72C0E900118260F1
:1025C00001737047D9B110B542F6145C42F6146E2F
:1025D000421EFF20C0F6000CC0F6000EFF2300BF15
:1025E00012F8014FC0B244401CF8040001395840B1
:1025F0001EF804300C04F3D1BDE8104001E0FF23C5
:10260000FF20C0B240EA032070470000B0B5044686
:1026100044F6FF30C4F200000D4684424FF0000043
:1026200013DD44F60041C4F200018C4219D045F29A
:102630000001C4F200018C4213D043F60001C4F241
:1026400001018C4210D103200CE044F20041C4F29D
:1026500000018C4205D044F60001C4F200018C4216
:1026600002D10220FFF72AFE00EB5500B0FBF5F087
:1026700080B2A060B0BD0000D0F8802022F40062DB
:10268000C0F88020D0F880201143C0F88010704737
:1026900040686FF35F2070476FF35F2141607047C0
:1026A00010B544F6FF31C4F20001884215DD44F64E
:1026B0000041C4F2000188421ED045F20001C4F27C
:1026C000000188421BD043F60001C4F20101884298
:1026D00018BF10BD40F20E3416E044F20041C4F2BF
:1026E000000188420ED044F60001C4F20001884285
:1026F00012D140F2124407E040F2134404E040F2E9
:10270000144401E040F211442046FFF75FFE2046EA
:10271000BDE81040FFF74ABE10BD0000C16841F49B
:102720000051C160704700008A09105801F01F0174
:10273000C84000F00100704701F01F0289094FF006
:10274000010C0B580CFA02F223EA02020A507047FD
:1027500001F01F0289094FF0010C0B580CFA02F22C
:102760001A430A5070470000C1F30442012303FAE0
:1027700002F2D243890D0A5070470000C1F389125A
:1027800052F800C08A0D105801F01F03C1F3044134
:10279000C8402CFA03F1084000F001007047000027
:1027A000C26822F4C062C260C2681143C16070474F
:1027B000C26801F0040122F00402C260C268114341
:1027C000C1607047026922F44052026102691143FC
:1027D00001617047C26801F0080122F00802C2607E
:1027E000C2681143C1607047C26822F48052C2605F
:1027F000C2681143C1607047B0B544F20044C4F2EE
:1028000000040D460028204640F2053107D0FFF7AE
:102810009FFF04F54C402021FFF712FC06E0FFF774
:102820008BFF04F54C402021FFF70CFC204640F2C2
:10283000063145B1FFF78CFF04F54C402021BDE87F
:10284000B040FFF7FFBBFFF777FF04F54C402021B6
:10285000BDE8B040FFF7F4BB10B540F60004C4F289
:10286000000420460021FFF7C1FD20460121FFF7AB
:1028700091FE20460121FFF783FE2046BDE810406F
:10288000FFF718BE10B540F60004C4F2000420465D
:102890000021FFF7ABFD20460121FFF77BFE20461C
:1028A0000121FFF773FE2046BDE81040FFF708BE88
:1028B00040F29222C2F2000213780146012B4FF03F
:1028C000000018BF704740F2E803C2F200031B7813
:1028D0000B7010700120704740F29221C2F200018B
:1028E000002201200A707047014640F29220C2F295
:1028F00000000122027040F2E802C2F20002012050
:102900001170704710B5044644F20040C4F2000054
:10291000FFF7BEFE01460120217010BD70B540F2E8
:1029200002600D46FFF732FD44F20044C4F2000499
:1029300004F544463046042101220823FFF78AFBB0
:102940003046182101220423FFF784FB40F2117066
:10295000FFF71CFD2046FFF7A3FE20460021FFF7EE
:1029600043FF20460021FFF71BFF20460021FFF711
:1029700029FF20462946FFF749FE20460021FFF7A0
:102980007BFE20460821FFF725FF20460421FFF7A4
:102990000FFF262000210022FFF7F6FB2046FFF75D
:1029A000BDFE40F20460FFF7F1FC04F54C4010213D
:1029B00003222023FFF74EFB012070BD80B50146A6
:1029C00044F20040C4F20000FFF766FE012080BD23
:1029D00070B584B0044640F20270FFF7D7FC40F6B1
:1029E0000005C4F200052846FFF702FD6E4630469A
:1029F000FFF7E0FD41F26F7000900020ADF8040099
:102A0000601E029028463146FFF760FD28460121EE
:102A1000FFF7BCFD1E2000210022FFF7B5FB0120BF
:102A200004B070BD80B582B040F2EA00C2F200008E
:102A3000007800283CD10DF10700FFF763FF40F25A
:102A4000E900C2F20000017803292ED8DFE801F086
:102A50002B02172B40F28E2CC2F2000C0022ACF895
:102A600000209DF80720BCF80030591CACF800107D
:102A700040F28D11C2F20001CA54022112E040F26C
:102A80008E21C2F200010A88FF2A0AD89DF80700A9
:102A90000A88531C0B8040F28D11C2F20001885449
:102AA00001E003210170FFF7EDFE002002B080BDC0
:102AB00043F2B92102A0C0F60001E922FEF7C8FCEA
:102AC00065536E645374617465203D3D20535441D9
:102AD00054455F54585F49444C450000B0B540F23E
:102AE000E905C2F20005287820B103280ED002289B
:102AF00004D10120FFF7F8FE044608E0287828B149
:102B00002878022802D02878032806D10024FFF76D
:102B1000A3FE012120462970B0BD43F25C2043F2A0
:102B2000B921C0F60000C0F600014FF4AE72FEF706
:102B30008FFC000070B540F2E900C2F2000000789E
:102B400001282FD140F2EA05C2F2000528780128B9
:102B500006D0C8B901200021FFF74EFE002070BD4D
:102B600040F29024C2F20004208878B140F27C1533
:102B7000C2F2000528680078FFF720FF28680130BE
:102B80002860208801382080002070BD0320FFF7D6
:102B9000ABFE0446012000210026FFF72DFE204653
:102BA0002E7070BD43F2B92103A0C0F6000140F2BF
:102BB0002312FEF74DFC00BF6552637653746174B7
:102BC00065203D3D2053544154455F52585F494470
:102BD0004C45000002E008C8121F08C1002AFAD1C3
:102BE00070477047002001E001C1121F002AFBD18D
:102BF000704770B50D46044602E02946FFF70EFA0D
:102C000014F8010B0028F8D170BD000010B50028A1
:102C100021D0114B0022001F196803E0814203D824
:102C20000A4649680029F9D152B11368841A9C42B6
:102C300004D1006818441060104602E0506000E0C3
:102C4000186039B102680B1A934203D10B681A4419
:102C500002604968416010BD080000202DE9F04184
:102C6000044602FB01F01F461646251838B104E061
:102C700020783946FFF7D2F9641CAC42F8D33046CD
:102C8000BDE8F081F0B50B30154D20F007010024B0
:102C9000144A0FE003688B420BD38B4205D95E1AAE
:102CA00043184768C3E9006700E04368136002C047
:102CB00004E0021D10680028ECD12046002802D153
:102CC000286808B10020F0BD064A07481060074A8E
:102CD000121A22F00702C0E9002401202860D7E779
:102CE0000C000020080000209C0200209806002014
:102CF00010B5044601E0FFF791F914F8010B0449FF
:102D00000028F8D1BDE810400A20FFF787B900007D
:102D10000400002000C1814001C0804101C0804109
:102D200000C1814001C0804100C1814000C181409B
:102D300001C0804101C0804100C1814000C181408B
:102D400001C0804100C1814001C0804101C080417B
:102D500000C1814001C0804100C1814000C181406B
:102D600001C0804100C1814001C0804101C080415B
:102D700000C1814000C1814001C0804101C080414B
:102D800000C1814001C0804100C1814000C181403B
:102D900001C0804101C0804100C1814000C181402B
:102DA00001C0804100C1814001C0804101C080411B
:102DB00000C1814000C1814001C0804101C080410B
:102DC00000C1814001C0804100C1814000C18140FB
:102DD00001C0804100C1814001C0804101C08041EB
:102DE00000C1814001C0804100C1814000C18140DB
:102DF00001C0804101C0804100C1814000C18140CB
:102E000001C0804100C1814001C0804101C08041BA
:102E100000C1814000C0C101C30302C2C60607C78A
:102E200005C5C404CC0C0DCD0FCFCE0E0ACACB0BFA
:102E3000C90908C8D81819D91BDBDA1A1EDEDF1F2A
:102E4000DD1D1CDC14D4D515D71716D6D21213D31A
:102E500011D1D010F03031F133F3F23236F6F737CA
:102E6000F53534F43CFCFD3DFF3F3EFEFA3A3BFBBA
:102E700039F9F83828E8E929EB2B2AEAEE2E2FEF6A
:102E80002DEDEC2CE42425E527E7E62622E2E323DA
:102E9000E12120E0A06061A163A3A26266A6A7670A
:102EA000A56564A46CACAD6DAF6F6EAEAA6A6BAB7A
:102EB00069A9A86878B8B979BB7B7ABABE7E7FBFAA
:102EC0007DBDBC7CB47475B577B7B67672B2B3739A
:102ED000B17170B05090915193535292965657974A
:102EE000559594549C5C5D9D5F9F9E5E5A9A9B5B3A
:102EF00099595898884849894B8B8A4A4E8E8F4FEA
:102F00008D4D4C8C44848545874746868242438359
:102F1000418180400000000001020304020600001D
:102F200000080140010000000806000000200140E8
:102F300000200000080600000020014000400000C2
:102F4000080600000020014000800000020600008A
:102F500000080140000100000606000000180140C2
:102F60004000000007060000001C01404000000077
:102F7000330C110CEB0BC50B9D0B750B4D0B240B80
:102F8000FA0ACF0AA00A790A4D0A210AF409C709E8
:102F90009A096C093F091109E308B60888085A081C
:102FA0002D080008D207A60779074D072107F60666
:102FB000CB06A10677064E062506FD05D605AF050C
:102FC000890564053F051B05F804D504B304920484
:102FD0007204520439041504F803DB03BF03A4038D
:102FE00089036F0356033D0326030E03F802E20232
:102FF000CC02B802A30290027D026A025802470284
:103000003602260216020602F701E901DB01CD01B4
:10301000C001B301A6019A018E01830178016D01FF
:10302000630159014F0146013C0134012B0122018A
:103030001B0112010B010301010000000000000050
:103040003509000800000000010001000000000038
:103050001109000800000000030002000000010048
:10306000000000005D0900080300030000000100EB
:10307000000000006D0900080300040000000100CA
:10308000000000007D0900089B009D009F00A50036
:10309000B100CC000101620104022303A404610613
:1030A0003408130A670B840C6A0D150E9C009D00F2
:1030B000A100A800BA00DF002801AD018A02D903EF
:1030C0007F0552071909EB0A280C1B0DF20D7B0E28
:1030D0009C009F00A400AF00C700FA005501FC014E
:1030E0000703810461064E08EC09810BA30C800DD7
:1030F000220E9E0E9D00A100A800B700D9001C0161
:103100009A016B02AD03E2062B071909BD0A280CD0
:10311000290DE20D5C0EC90E9F00A500B000C50090
:10312000EC004001DD01EE02610444061B08EC09DD
:10313000670BA30C710D1A0E970EF40EA100A800D8
:10314000B700D200080177014302850339053E0725
:10315000FA08A60AEE0B0E0DD30D5C0EC30E130F6C
:10316000A300AD00BF00E6002C01C301B802250496
:1031700000061B08C6094D0B840C620D0A0E860E54
:10318000DE0E260FA600B200CA00FA005801FC01AC
:103190002303CA04BF06BD08900AEE0BE50CAC0D74
:1031A000430EA90EF90E3A0FA900B800D6001C0173
:1031B0008D016B02D903950590077E09030B460C20
:1031C000290DDA0D640EC30E0C0F470FAF00C400BB
:1031D000EC003B01DD01EE02810444063408EC09F9
:1031E000810BA30C710D120E8F0EE70E1E0F540FE4
:1031F000B300CC00FD0062012102610330052B0702
:10320000FA08A60AEE0B000DBC0D4B0EB10E020F14
:10321000360F640FBA00D900160191017A02AD038E
:10322000F305EA07C6091B0B650C460DEA0D6C0E8B
:10323000CC0E150F440F6E0FBF00E5002C01C90125
:10324000E2020A04AF06A008650AB60BCA0C800D9C
:103250001A0E8F0EDE0E1E0F4E0F750F286552636D
:10326000765374617465203D3D2053544154455F4D
:1032700052585F494E495429207C7C20286552636E
:10328000765374617465203D3D2053544154455F2D
:1032900052585F52435629207C7C20286552637621
:1032A0005374617465203D3D2053544154455F5231
:1032B000585F4552524F5229004D6964646C6577DE
:1032C0006172655F4D6F646275732F7274752F6DD7
:1032D000627274752E630000F8320008000000204E
:1032E000D8000000D42B0008D0330008D8000020FC
:1032F000C0450000E42B00080000000000000000B2
:103300000000000000000000020000000038014042
:103310000E06000000080140020600000002000046
:10332000000400002500000000000500050000006A
:10333000D10400080000E803E80300000D0B0008BA
:1033400000000100010000000D090008030000005A
:10335000CD170008100000006518000806000000E6
:103360003518000800000000000000000000000008
:10337000000000000000000000000000000000004D
:10338000000000000000000000000000000000003D
:10339000000000000000000000000000000000002D
:1033A000000000000000000000000000000000001D
:1033B000000000000000000000000000000000000D
:1033C00000000000000000000000000000000000FD
:0400000508000131BD
:00000001FF
